:1000000009C1000038C1000036C1000034C1000041
:1000100032C1000030C100002EC100002CC1000020
:100020002AC1000028C1000026C1000024C1000030
:1000300022C1000020C100001EC100001CC1000040
:100040001AC1000018C1000016C1000014C1000050
:1000500012C1000010C100000EC1000061C6000006
:100060000AC100000C94C0090C94F60904C10000F8
:1000700002C1000000C10000FEC00000FCC0000082
:10008000FAC00000F8C00000F6C00000F4C0000094
:10009000F2C00000F0C00000EEC00000ECC00000A4
:1000A000EAC00000E8C00000E6C00000E4C00000B4
:1000B000E2C00000E0C00000DEC00000DCC00000C4
:1000C000DAC00000D8C00000D6C00000D4C00000D4
:1000D000D2C00000D0C00000CEC00000CCC00000E4
:1000E000CAC00000A807AB079A079E07A407E2074B
:1000F000AF07B307B907BD07C107C707CB07CF07CE
:10010000E207D507D907DD0700000A0B02090C0D2D
:100110000E080703040100000000000000000000BA
:1001200000000000000000000000000000000000CF
:10013000000000001211100000000000000000008C
:1001400000000000000000000000000000000102AC
:1001500010202008081020401020408002010201D9
:100160000804020101020408102040808040201091
:1001700008040201800402018040201008040201EA
:100180000804020101020408102040800102040852
:10019000102040800505050507050808080802022B
:1001A00002020A0A08080404040401010101010111
:1001B00001010303030303030303040707070C0CF4
:1001C0000C0C0C0C0C0C02020202060606060606BB
:1001D00006060B0B0B0B0B0B0B0B00002200250074
:1001E00028002B002E003100340002010000050120
:1001F00008010B0100002100240027002A002D0027
:100200003000330001010000040107010A017203FC
:10021000280AD20311241FBECFEFD1E2DEBFCDBF2B
:1002200000E00CBF12E0A0E0B2E0E8E5FCE100E095
:100230000BBF02C007900D92AE3BB107D9F724E087
:10024000AEEBB2E001C01D92A432B207E1F712E0BA
:10025000C2E1D2E000E006C022970109FE010BBF17
:100260000E94F50BCE30D10780E00807A9F70E9465
:100270006C0A0C941B0EC4CE8FE293E00E941F0BFD
:1002800089E293E00E941F0B8EEB92E08CD28DE30B
:1002900093E00E941F0B87E393E00C941F0B0F93D6
:1002A0001F93CF93DF9300D000D0CDB7DEB78B0183
:1002B000FA0120813181428129833A834B83611580
:1002C000710571F487E090E00E94760AFC012981B3
:1002D0003A814B81248335834683138212820BC07B
:1002E000FB0162817381AE014F5F5F4FD8DFF80180
:1002F00093838283C80126960FB6F894DEBF0FBEA3
:10030000CDBFDF91CF911F910F910895CF92DF92D2
:10031000EF92FF920F931F93CF93DF9300D0CDB74F
:10032000DEB78C016B01FC011182108213821282F4
:100330001582148217821682E12CF12CEC14FD0434
:1003400089F087E090E00E94760AAE014F5F5F4F30
:10035000BC01C801A4DFF80193838283FFEFEF1A89
:10036000FF0AECCF0F900F900F90DF91CF911F916C
:100370000F91FF90EF90DF90CF9008952F923F92D2
:100380004F925F926F927F928F929F92AF92BF92A5
:10039000CF92DF92EF92FF920F931F93CF93DF9351
:1003A000CDB7DEB72D970FB6F894DEBF0FBECDBF29
:1003B0006C015B01542F1A8709875B8766D3F601AE
:1003C000168A158A178A108E2FEF218F178E168E98
:1003D0008CED95E091A380A381E090E097A386A3A4
:1003E00080E197E291A780A788E893E193A782A78D
:1003F00024A725A726A714AA13AA80ED97E096ABF9
:1004000085AB27AB20AF21AFE65BFF4F10824601E3
:10041000FBE48F0E911CF401118210821382128270
:10042000158214821782168286010D5A1F4FF80119
:100430001182108213821282158214821782168210
:100440001601FBE52F0E311CF1011182108213827F
:100450001282158214821782168296012D593F4FFF
:10046000F90111821082138212821582148217827E
:1004700016823601FBE66F0E711C65E672E0C30161
:100480002C873D870E94860B230186E0480E511C75
:1004900065E672E0C2010E94860BF601EA5BFF4F3F
:1004A000B182A08232965B85852F90E09183808314
:1004B000BF9689859A8591838083B701C3010E9485
:1004C0009B0BB7016A5F7F4FC2010E949B0BB50176
:1004D000CE0101961BDF88E0FE013196D401019028
:1004E0000D928A95E1F7B501CE0101960FDF88E004
:1004F000FE013196D80101900D928A95E1F7B50180
:10050000CE01019603DF88E0FE013196D101019012
:100510000D928A95E1F7B501CE010196F7DE88E0EC
:10052000FE0131962C853D85D90101900D928A9569
:10053000E1F72D960FB6F894DEBF0FBECDBFDF9169
:10054000CF911F910F91FF90EF90DF90CF90BF90D0
:10055000AF909F908F907F906F905F904F903F9063
:100560002F900895CF92DF92EF92FF920F931F93F7
:10057000CF93DF93EC01E12CF12C00E010E06C0153
:1005800086E4C80ED11CF601608171810617170739
:1005900050F5C7010E94B90B9C8D960F909595352B
:1005A00038F4892F880F890F482F60E0809511C09B
:1005B0009A3A40F49555692F660F690F462F40957A
:1005C00080E007C09A5A892F880F890F682F60959D
:1005D00040E0E5D29B01AC01B801CE017BD20F5FB8
:1005E0001F4FF394D0CFCE0161D1FE01E65BFF4FE8
:1005F00020818C8D9D8D21110BC001969D8F8C8F3C
:100600002A8D3B8D8217930768F01D8E1C8E0AC0C1
:1006100001979D8F8C8F892B29F48A8D9B8D019753
:100620009D8F8C8FDF91CF911F910F91FF90EF9055
:10063000DF90CF90089540ED57E060E070E083E4F4
:1006400093E0DDD220E032EC41E050E063E873E07B
:1006500083E493E0E6D283E493E0CFD266E072E0F5
:10066000809174039091750380D76AE070E080E018
:1006700090E0CFD341E060E083E493E037C30F9391
:100680001F9398D30091000310910103209102035E
:1006900030910303601B710B820B930B0091FC02E2
:1006A0001091FD022091FE023091FF0206171707FC
:1006B00028073907A0F47ED36093000370930103E9
:1006C00080930203909303038091D3029091D4020C
:1006D000039729F48EEB92E01F910F9143CF1F9166
:1006E0000F910895EF92FF920F931F93CF93DF9393
:1006F000CDB7DEB762970FB6F894DEBF0FBECDBFA1
:1007000068E172E0CE010D960E94860B6BE472E008
:10071000CE010196FBD765E672E087E393E0F6D75A
:1007200065E672E08DE393E0F1D7BE016F5F7F4F26
:1007300087E393E00E949B0BBE01635F7F4F8DE3D5
:1007400093E0F9D7CE0101967AD7CE010D9677D7EF
:1007500067E373E0CE0101960E94B00B6DE373E096
:10076000CE010796FDD7CE0101967C0100E010E096
:1007700022E530E045E06CE370E08EEB92E0FEDDD8
:10078000CE0107965CD7C7015AD762960FB6F89488
:10079000DEBF0FBECDBFDF91CF911F910F91FF90B4
:1007A000EF90089569CDCF93DF93EC01888599850B
:1007B000009711F00E94910C8E8187FD04C060E0CB
:1007C000DF91CF9100C4DF91CF910895EF92FF9216
:1007D0000F931F93CF93DF93EC017B01888599855D
:1007E000009711F00E94910C9D858A85981303C093
:1007F00083E090E002C084E090E08E9D80018F9DB8
:10080000100D9E9D100D11241D830C83C801F1D77E
:1008100099878887009741F0A80160E070E00E9406
:100820000D0EFB82EA8204C01D821C821B821A828A
:10083000DF91CF911F910F91FF90EF900895FC01F0
:1008400021E095858285981320E0CB0136E09695CE
:1008500087953A95E1F7482F43704587CB0154E0DF
:10086000969587955A95E1F7382F33703287CB01EB
:10087000969587959695879583708387862F837045
:10088000848781E06F3F710511F008F080E080837C
:1008900080859185892B49F091E0431390E0921770
:1008A00021F062817381CF0191CF0895CF92DF92C1
:1008B000EF92FF920F931F93CF93DF93CDB7DEB7E5
:1008C00029970FB6F894DEBF0FBECDBF8C01DC01B7
:1008D00018968D919C911997892B09F498C076D21E
:1008E000F801C684D784E088F1886C197D098E09E7
:1008F0009F09623371058105910588F3F89484811D
:1009000095819A838983A085B1857D01EFEFEE1AE9
:10091000FE0A8C918987D8019C9152960D90BC91CA
:10092000A02DF8018489992309F42EC09C91982B5D
:1009300098879C91809589238F838F818E8388E00F
:100940008D8358856F8149853D812E8189819A816A
:10095000F7015C9347FD252F3A952C93262F39F00C
:10096000441F00C000006C93000000C0F2CF38E0CC
:1009700041916C930000019761F7F801B38BA28B52
:1009800049873D832E8338C09C91982B98879C91F2
:10099000809589238F838F818C8388E08B83588512
:1009A0006F8149853B812C8189819A81F7015C9314
:1009B00047FD252F00C000C02C9300C000C000C020
:1009C00000C000C06C930000262F3A9541F0441FF0
:1009D000000000C000C000C000C000C0E8CF38E088
:1009E000419100C06C9300C0019709F7F801B38BE7
:1009F000A28B49873B832C839A8389837894E6D1A1
:100A0000D8011E966D937D938D939C935197299653
:100A10000FB6F894DEBF0FBECDBFDF91CF911F910F
:100A20000F91FF90EF90DF90CF9008951F93CF9399
:100A3000DF93EC01162F8981882329F08E8187FDB1
:100A400002C060E0C0D21E838981882331F061E05A
:100A5000812FB9D260E0812FEFD2812F90E0FC018D
:100A6000EC56FE4FE491F0E0EE0FFF1FE652FE4F12
:100A7000259134913B8B2A8BFC01E25BFE4F8491E4
:100A80008C8BDF91CF911F910895EF92FF920F937E
:100A90001F93CF93DF931F92CDB7DEB77C018B01FD
:100AA000FC01118217821186108616861786108A1D
:100AB000118AB9014983C3DEB801C70187DE4981C4
:100AC000642FC7010F90DF91CF911F910F91FF907D
:100AD000EF90ACCFCF92DF92EF92FF920F931F93E4
:100AE000CF93DF93FC01828193816817790708F027
:100AF0004DC0CA01AA27BB27182FC32ED42EE52E1E
:100B0000FF24DC2DC22F0781002361F0809FC001EC
:100B10001124192FC09E60011124DD2D209FC001DA
:100B20001124C92FF5848285A085B185F81208C0EB
:100B3000CB01880F991F860F971F8A0F9B1F17C025
:100B4000CB01880F991F880F991F8A0F9B1F452F74
:100B5000552766277727DC01AF0DB11D002329F04B
:100B6000409F90011124232F01C0242F2C93228514
:100B7000DC01A20FB11D1C932385DC01A20FB11D66
:100B8000DC932485FC01E20FF11DC083DF91CF913E
:100B90001F910F91FF90EF90DF90CF900895962FC7
:100BA00050E060E070E0592B682BCB01BA0108954A
:100BB0000F931F93CF93DF93EC01662351F0FAD08C
:100BC00069837A838B839C83DF91CF911F910F91EF
:100BD0000895F0D009811A812B813C81601B710B33
:100BE000820B930B693171058105910540F763E034
:100BF00070E080E090E00DD1ECCF60E0D9CFFC0157
:100C000013AA14AA15AA16AA118212821382148298
:100C1000411551056105710519F0CB01BA01F9C003
:100C20000895FB01BA01A901DC01D296FC93EE9371
:100C3000D19726E0CF0144C31F93CF93DF93EC01FC
:100C4000162F66E572E089A99AA98FD44AE050E090
:100C5000612F89A99AA9EDD46DE572E089A99AA9B5
:100C600084D462E370E080E090E0DF91CF911F9147
:100C7000D0C01F93CF93DF93EC01162F8D81882373
:100C800081F189A99AA9DC01ED91FC910480F5819B
:100C9000E02D1995892BA9F307C02637310511F1ED
:100CA0002835310509F41D8289A99AA9DC01ED9145
:100CB000FC910480F581E02D1995181619068CF425
:100CC00089A99AA9DC01ED91FC910680F781E02DBC
:100CD00019959C01332723363105F9F6612FCE0192
:100CE000ABDF83E6DF91CF911F9108950F931F93A0
:100CF000CF93DF931F92CDB7DEB78C01662341F00F
:100D000081E0F801858360E0C8014983B2DF498151
:100D1000F80145830F90DF91CF911F910F910895B6
:100D20001F920F920FB60F9211242F933F938F9320
:100D30009F93AF93BF9380917B0390917C03A0918D
:100D40007D03B0917E0330917A0323E0230F2D378A
:100D500020F40196A11DB11D05C026E8230F0296BF
:100D6000A11DB11D20937A0380937B0390937C0394
:100D7000A0937D03B0937E0380917F0390918003C5
:100D8000A0918103B09182030196A11DB11D8093B2
:100D90007F0390938003A0938103B0938203BF915C
:100DA000AF919F918F913F912F910F900FBE0F9018
:100DB0001F9018952FB7F89460917B0370917C0376
:100DC00080917D0390917E032FBF08953FB7F894E3
:100DD00080917F0390918003A0918103B091820361
:100DE00026B5A89B05C02F3F19F00196A11DB11D86
:100DF0003FBF6627782F892F9A2F620F711D811DA3
:100E0000911D42E0660F771F881F991F4A95D1F701
:100E10000895CF92DF92EF92FF92CF93DF936B0111
:100E20007C01D4DFEB01C114D104E104F10479F0B9
:100E30009FD4CCDF6C1B7D0B683E7340A0F381E038
:100E4000C81AD108E108F108C851DC4FECCFDF9196
:100E5000CF91FF90EF90DF90CF900895789484B574
:100E6000826084BD84B5816084BD85B5826085BDA6
:100E700085B5816085BDEEE6F0E08081816080838C
:100E8000E1E8F0E01082808182608083808181606F
:100E90008083E0E8F0E0808181608083E1EBF0E036
:100EA000808184608083E0EBF0E0808181608083DA
:100EB000E1E9F0E0808182608083808181608083CD
:100EC000E0E9F0E0808181608083E1EAF0E0808108
:100ED00082608083808181608083E0EAF0E08081AD
:100EE00081608083E1E2F1E08081826080838081A3
:100EF00081608083E0E2F1E0808181608083EAE7C5
:100F0000F0E0808184608083808182608083808142
:100F1000816080838081806880831092C100089501
:100F200090E0FC013197E231F10508F04BC0EE583A
:100F3000FF4F55C4809180008F7703C0809180005F
:100F40008F7D80938000089580918000877FF9CF06
:100F500084B58F7702C084B58F7D84BD089580915C
:100F6000B0008F7703C08091B0008F7D8093B00078
:100F70000895809190008F7707C0809190008F7DB9
:100F800003C080919000877F8093900008958091A6
:100F9000A0008F7707C08091A0008F7D03C0809153
:100FA000A000877F8093A0000895809120018F7713
:100FB00007C0809120018F7D03C080912001877F31
:100FC000809320010895CF93DF9390E0FC01E25BD2
:100FD000FE4F2491FC01EC56FE4F8491882349F189
:100FE00090E0880F991FFC01EC50FE4FA591B49141
:100FF00086529E4FFC01C591D4919FB7611108C0E4
:10100000F8948C91209582238C93888182230AC046
:10101000623051F4F8948C91322F309583238C9365
:101020008881822B888304C0F8948C91822B8C93C6
:101030009FBFDF91CF9108950F931F93CF93DF93BD
:101040001F92CDB7DEB7282F30E0F901E85FFE4FE1
:101050008491F901E25BFE4F1491F901EC56FE4FC9
:1010600004910023C1F0882319F0698359DF698155
:10107000E02FF0E0EE0FFF1FE652FE4FA591B49176
:101080009FB7F8948C91611103C01095812301C022
:10109000812B8C939FBF0F90DF91CF911F910F9168
:1010A0000895FC01818D228D90E0805C9F4F821B12
:1010B00091098F7399270895FC01918D828D98175E
:1010C00031F0828DE80FF11D858D90E008958FEF4E
:1010D0009FEF0895FC01918D828D981761F0828DAC
:1010E000DF01A80FB11D5D968C91928D9F5F9F735C
:1010F000928F90E008958FEF9FEF08958FE19AE02F
:10110000892B39F080E090E0892B19F098D181117A
:1011100025C080E090E0892B41F080E090E0892BB1
:1011200021F00E94000081111CC080E090E0892B1A
:1011300041F080E090E0892B21F00E9400008111B5
:1011400013C080E090E0892BA1F080E090E0892B33
:1011500081F00E94000081110AC008950E940000E1
:10116000D8CF0E940000E1CF0E940000EACF0C948B
:1011700000000895FC01848DDF01A80FB11DA35A62
:10118000BF4F2C91848D90E001968F739927848FA7
:10119000A689B7892C93A089B1898C9180648C939E
:1011A000938D848D981306C00288F389E02D808189
:1011B0008F7D80830895CF93DF93EC01888D882302
:1011C000C1F0EA89FB89808185FD05C0A889B989BC
:1011D0008C9186FD0EC00FB607FCF5CF808185FF90
:1011E000F2CFA889B9898C9185FFEDCFCE01C2DFFE
:1011F000E8CFDF91CF910895CF92DF92FF920F93C6
:101200001F93CF93DF931F92CDB7DEB76C0181E0C0
:10121000D60158968C9358975B969C915B975C96F9
:101220008C915C97981307C05096ED91FC91519763
:10123000808185FD2DC0F601038D10E00F5F1F4FEB
:101240000F731127F02EF601848DF81210C00FB61F
:1012500007FCF9CFD6015096ED91FC915197808112
:1012600085FFF1CFC601698385DF6981ECCF838D6E
:10127000E80FF11DE35AFF4F6083D6015B960C9394
:101280005B975296ED91FC915397808180620CC0E0
:10129000D6015696ED91FC91579760835096ED914B
:1012A000FC91519780818064808381E090E00F9071
:1012B000DF91CF911F910F91FF90DF90CF90089514
:1012C000BF92CF92DF92EF92FF92CF93DF93EC0128
:1012D0006A017B01B22EE889F98982E08083411599
:1012E00081EE58076105710599F060E079E08DE3C2
:1012F00090E0A701960151D22150310941095109CD
:101300005695479537952795211580E1380790F038
:10131000E889F989108260E874E88EE190E0A7011D
:1013200096013BD221503109410951095695479503
:1013300037952795EC85FD853083EE85FF852083E5
:10134000188EEC89FD89B082EA89FB8980818061F1
:101350008083EA89FB89808188608083EA89FB89B0
:10136000808180688083EA89FB8980818F7D80838A
:10137000DF91CF91FF90EF90DF90CF90BF900895D5
:101380001F920F920FB60F9211240BB60F922F934C
:101390008F939F93EF93FF93E0919303F0919403C6
:1013A0008081E0919903F0919A0382FD12C09081AF
:1013B00080919C038F5F8F7320919D03821751F062
:1013C000E0919C03F0E0ED57FC4F958F80939C03D8
:1013D00001C08081FF91EF919F918F912F910F908C
:1013E0000BBE0F900FBE0F901F9018951F920F927B
:1013F0000FB60F9211240BB60F922F933F934F937A
:101400005F936F937F938F939F93AF93BF93EF936C
:10141000FF9383E893E0AEDEFF91EF91BF91AF9130
:101420009F918F917F916F915F914F913F912F91FC
:101430000F900BBE0F900FBE0F901F90189583E872
:1014400093E02FDE21E0892B09F420E0822F08951C
:10145000109286031092850388EE93E0A0E0B0E03E
:101460008093870390938803A0938903B0938A03A2
:1014700082EB92E0909384038093830385EC90E069
:101480009093900380938F0384EC90E09093920369
:101490008093910380EC90E0909394038093930366
:1014A00081EC90E0909396038093950382EC90E01A
:1014B000909398038093970386EC90E090939A031F
:1014C0008093990310929C0310929D0310929E03A7
:1014D00010929F0308950895C1DCFDDFACD8CEE7DC
:1014E000D8E0CDD82097E9F309DEFBCF82C1CF92B7
:1014F000DF92EF92FF920F931F93CF93DF937C01C4
:101500006A01EB0100E010E00C151D0571F0699116
:10151000D701ED91FC910190F081E02DC701199563
:10152000892B19F00F5F1F4FEFCFC801DF91CF91CB
:101530001F910F91FF90EF90DF90CF90089561156C
:10154000710581F0DB010D900020E9F7AD014150FC
:101550005109461B570BDC01ED91FC910280F38190
:10156000E02D199480E090E00895E9CF8F929F924A
:10157000AF92BF92CF92DF92EF92FF920F931F93A1
:10158000CF93DF93CDB7DEB7A1970FB6F894DEBF48
:101590000FBECDBF7C01C42EE52FCB01D22E19A2E8
:1015A00021E02D1510F02AE0D22E8E010F5D1F4F85
:1015B0008D2C912CA12CB12C6C2D7E2FA50194018A
:1015C000ECD08C2DD29E80191124015011098A3043
:1015D00014F4805D01C0895CF80180832115310518
:1015E0004105510521F0C22EE32FCA01E5CFB80114
:1015F000C701A5DFA1960FB6F894DEBF0FBECDBF21
:10160000DF91CF911F910F91FF90EF90DF90CF90DE
:10161000BF90AF909F908F9008952115310541F4B0
:10162000DC01ED91FC910190F081E02D642F199483
:101630009DCF9A01462F50E060E070E0EECFFC01B4
:10164000808191816EC1CF93DF93EC018881998174
:10165000009709F066D1198218821D821C821B82B4
:101660001A82DF91CF9108950F931F93CF93DF9349
:10167000EC018B016F5F7F4F88819981E1D10097E9
:1016800031F0998388831B830A8381E001C080E065
:10169000DF91CF911F910F910895CF93DF93EC01CC
:1016A00088819981892B29F08A819B8186179707E8
:1016B00058F4CE01D9DF882341F08C819D81892B9C
:1016C00019F4E881F981108281E0DF91CF910895CA
:1016D000EF92FF920F931F93CF93DF93EC017B0167
:1016E0008A01BA01DADF811103C0CE01ACDF06C086
:1016F0001D830C83B7018881998196D2CE01DF9139
:10170000CF911F910F91FF90EF900895FC011182EE
:10171000108213821282158214826115710551F0B4
:10172000FB0101900020E9F7AF0141505109461B30
:10173000570BCECF0895CF93DF93EC01FB018617B3
:10174000970751F0608171816115710521F0448125
:101750005581BEDF01C077DFCE01DF91CF910895C3
:10176000FC01118210821382128215821482E3CF4F
:101770000895AA1BBB1B51E107C0AA1FBB1FA617D8
:10178000B70710F0A61BB70B881F991F5A95A9F72A
:1017900080959095BC01CD010895A1E21A2EAA1B57
:1017A000BB1BFD010DC0AA1FBB1FEE1FFF1FA21711
:1017B000B307E407F50720F0A21BB30BE40BF50B0E
:1017C000661F771F881F991F1A9469F76095709597
:1017D000809590959B01AC01BD01CF010895EE0F5E
:1017E000FF1F0590F491E02D19940790F691E02DDC
:1017F0001994CF93DF938230910510F482E090E04A
:10180000E0912204F091230420E030E0A0E0B0E079
:10181000309739F14081518148175907B8F048177E
:10182000590771F482819381109729F013969C9344
:101830008E9312972CC0909323048093220427C088
:101840002115310531F04217530718F0A901DB01CA
:1018500001C0EF019A01BD01DF010280F381E02D9B
:10186000D7CF21153105F9F0281B390B243031056C
:1018700080F48A819B816115710521F0FB019383BE
:10188000828304C09093230480932204FE01329645
:1018900044C0FE01E20FF31F81939193225031095E
:1018A000398328833AC02091200430912104232BCE
:1018B00041F42091020230910302309321042093DD
:1018C000200420910002309101022115310541F4DC
:1018D0002DB73EB74091040250910502241B350BF1
:1018E000E0912004F0912104E217F307A0F42E1BED
:1018F0003F0B2817390778F0AC014E5F5F4F241774
:10190000350748F04E0F5F1F509321044093200489
:101910008193919302C0E0E0F0E0CF01DF91CF919D
:101920000895CF93DF93009709F487C0FC013297A5
:1019300013821282C0912204D0912304209781F453
:1019400020813181280F391F80912004909121043A
:101950008217930779F5F0932104E09320046DC07A
:10196000DE0120E030E0AE17BF0750F412964D9133
:101970005C9113979D014115510509F1DA01F3CFEF
:10198000B383A28340815181840F951F8A179B07DF
:1019900071F48D919C911197840F951F02969183FC
:1019A000808312968D919C91139793838283211546
:1019B000310529F4F0932304E09322043EC0D901B9
:1019C0001396FC93EE9312974D915D91A40FB51F62
:1019D000EA17FB0779F480819181840F951F0296A5
:1019E000D90111969C938E938281938113969C9337
:1019F0008E931297E0E0F0E08A819B81009719F0C6
:101A0000FE01EC01F9CFCE01029628813981820FC7
:101A1000931F20912004309121042817390769F47D
:101A2000309729F4109223041092220402C01382EA
:101A30001282D0932104C0932004DF91CF910895A6
:101A40006F927F928F929F92AF92BF92CF92DF92CE
:101A5000EF92FF920F931F93CF93DF93EC01CB0193
:101A6000209779F4DF91CF911F910F91FF90EF9024
:101A7000DF90CF90BF90AF909F908F907F906F90AE
:101A8000B8CEFE01E60FF71F9E0122503109E21782
:101A9000F30708F4A8C0D9010D911C9111970617FE
:101AA0001707B0F00530110508F49BC0A801445099
:101AB00051094617570708F494C002501109061B34
:101AC000170B019311936D937C93CF012ADF89C08B
:101AD0005B01A01AB10A4E01800E911EA091220452
:101AE000B0912304612C712C60E070E0109709F430
:101AF00049C0A815B905C9F5ED90FC90119767018B
:101B000042E0C40ED11CCA14DB0478F147018A18E4
:101B10009B08640142E0C40ED11C1296BC9012973F
:101B20001396AC91B5E0CB16D10440F0B282A383FA
:101B300091828082D9018D939C9309C00E5F1F4FC3
:101B40000E0D1F1DF90111830083EB2DFA2F611576
:101B5000710531F0DB011396FC93EE93129741C0AF
:101B6000F0932304E09322043CC06D917C91119783
:101B70006616770608F43B01BD0112960D90BC91E4
:101B8000A02DB4CF609120047091210468157905CF
:101B9000E9F468167906D0F44091000250910102F0
:101BA0004115510541F44DB75EB760910402709143
:101BB0000502461B570BE417F507A8F4F093210420
:101BC000E0932004F901918380830BC012DE7C0135
:101BD000009749F0A801BE0117D0CE01A2DEC701CF
:101BE00004C0CE0102C080E090E0DF91CF911F9150
:101BF0000F91FF90EF90DF90CF90BF90AF909F90AC
:101C00008F907F906F900895FB01DC0102C00190DE
:101C10000D9241505040D8F70895DC0101C06D93FA
:101C200041505040E0F70895FB01DC0101900D9216
:101C30000020E1F7089512E0C2E1D2E000E005C023
:101C400022970109FE010BBFD0DDC431D10780E02E
:081C50000807B1F7F894FFCF7B
:101C5800000024048000564D4450565F317C315FAB
:101C6800564D4450560D0A00546869732069732014
:101C78007468652064657461696C7320666F72208E
:101C8800746865207374726970207573656420695F
:101C98006E207468652064656D6F0044656D6F2003
:101CA800537472697000564D4450435F005F564D3F
:101CB8004450430D0A004572726F723A20417474A1
:101CC800656D707420746F2073657420612072656F
:101CD80061642D6F6E6C79207661726961626C65E2
:101CE800206F7220646174612074797065206E6F52
:101CF8007420737570706F727465640D0A0000004B
:0E1D08000000FC08770A51086A085C08DB0836
:00000001FF
