:10000000C7C10000F6C10000F4C10000F2C1000049
:10001000F0C10000EEC10000ECC10000EAC1000028
:10002000E8C10000E6C10000E4C10000E2C1000038
:10003000E0C10000DEC10000DCC10000DAC1000048
:10004000D8C10000D6C10000D4C10000D2C1000058
:10005000D0C10000CEC10000CCC100000C949608B5
:10006000C8C100000C94C60B0C94FC0BC2C100006C
:10007000C0C10000BEC10000BCC10000BAC1000088
:10008000B8C10000B6C10000B4C10000B2C1000098
:10009000B0C10000AEC10000ACC10000AAC10000A8
:1000A000A8C10000A6C10000A4C10000A2C10000B8
:1000B000A0C100009EC100009CC100009AC10000C8
:1000C00098C1000096C1000094C1000092C10000D8
:1000D00090C100008EC100008CC100008AC10000E8
:1000E00088C10000AE09B109A009A409AA09E8095C
:1000F000B509B909BF09C309C709CD09D109D5098E
:10010000E809DB09DF09E3093E20004F5247414E71
:100110004943205B312F305D0052455645525345CF
:10012000205B312F305D00454646454354205B54EB
:1001300041524745545F4546464543545D20445B24
:100140004455524154494F4E5D0049444C45205B53
:100150005441524745545F49444C455D20525B52DF
:10016000454420425954455D20475B475245454E22
:1001700020425954455D20425B424C55452042592E
:1001800054455D20495B494E54455256414C2D4DD6
:10019000494C4C495345434F4E44535D00545241E2
:1001A0004E534954494F4E205B5441524745545F8A
:1001B0005452414E534954494F4E5D20495B494E7C
:1001C00054455256414C2D4D494C4C495345434F93
:1001D0004E44535D005354415445205B54415247B3
:1001E00045545F53544154455D20525B5245442071
:1001F000425954455D20475B475245454E20425980
:1002000054455D20425B424C554520425954455D62
:1002100020495B494E54455256414C5F4D494C4C28
:10022000495345434F4E44535D00436F6D6D616EBE
:1002300064733A0041726475696E6F2F4156522F94
:10024000524953432050736575646F204173796E32
:1002500063204C69676874696E67205379737465AD
:100260006D20776974682053657269616C20436FF3
:100270006D6D616E6473207C2056657273696F6E5C
:100280003A200000000A0B02090C0D0E08070304B7
:10029000010000000000000000000000000000005D
:1002A000000000000000000000000000000000123C
:1002B000111000000000000000000000000000001D
:1002C00000000000000000000001021020200808CB
:1002D00010204010204080020102010804020101A8
:1002E0000204081020408080402010080402018091
:1002F00004020180402010080402010804020101E8
:1003000002040810204080010204081020408005EB
:10031000050505070508080808020202020A0A087E
:1003200008040404040101010101010101030303A4
:100330000303030303040707070C0C0C0C0C0C0C41
:100340000C0202020206060606060606060B0B0B48
:100350000B0B0B0B0B00002200250028002B002E9E
:10036000003100340002010000050108010B01000A
:10037000002100240027002A002D00300033000156
:10038000010000040107010A010064042E0CCA05E3
:1003900011241FBECFEFD1E2DEBFCDBF00E00CBF06
:1003A00012E0A0E0B2E0E8EFF3E200E00BBF02C031
:1003B00007900D92A23EB107D9F724E0A2EEB2E079
:1003C00001C01D92A937B207E1F713E0CEE8D3E0F0
:1003D00000E006C022970109FE010BBF0E94C50F75
:1003E000CA38D10780E00807A9F70E94720C0C9464
:1003F000EB1106CECF93DF93EC0182E090E00E94F8
:100400007E0CFC0111921192F983E883DF91CF9168
:1004100008958F929F92AF92BF92CF92DF92EF9208
:10042000FF920F931F93CF93DF93EC014B01E12CCD
:10043000F12CC12CD12C00E010E05C0181E6A80E6B
:10044000B11CF501608171810617170778F5C701A6
:100450000E94890F9D8D960F9095953538F4892FC0
:10046000880F890F482F60E0809511C09A3A40F4B8
:100470009555692F660F690F462F409580E007C09C
:100480009A5A892F880F890F682F609540E08DD583
:10049000F401EC0DFD1D60837183828393830F5FF4
:1004A0001F4FE4E0CE0ED11CF394CBCFFE01EB59ED
:1004B000FF4F20818D8D9E8D21110BC001969E8F47
:1004C0008D8F2B8D3C8D8217930700F11E8E1D8E14
:1004D0000AC001979E8F8D8F892BC1F48B8D9C8DC7
:1004E00001979E8F8D8FC458DF4FE881F981309737
:1004F00069F0DF91CF911F910F91FF90EF90DF9006
:10050000CF90BF90AF909F908F901994DF91CF9133
:100510001F910F91FF90EF90DF90CF90BF90AF9021
:100520009F908F9008952F923F924F925F926F927B
:100530007F928F929F92AF92BF92CF92DF92EF9273
:10054000FF920F931F93CF93DF93CDB7DEB72A9718
:100550000FB6F894DEBF0FBECDBF5C0124E0C22E03
:10056000D12CEE24E394F12C8F599F4F9A878987E1
:1005700045019AE6890E911C3501ACE66A0E711CA4
:10058000A985BA858D919C918E159F0508F479C037
:10059000D401ED91FC91EC0DFD1D80819181A28132
:1005A000B3818D839E83AF83B887D301ED91FC9196
:1005B000EC0DFD1D80819181A281B38189839A8395
:1005C000AB83BC836F8170E080E090E00E949A0E64
:1005D00020E030E0A9010E94260F1B012C016B8155
:1005E00070E080E090E00E949A0E9B01AC01C20195
:1005F000B1010E94080E0E946C0E062F6E8170E001
:1006000080E090E00E949A0E20E030E0A9010E9474
:10061000260F1B012C016A8170E080E090E00E94AF
:100620009A0E9B01AC01C201B1010E94080E0E940A
:100630006C0E162F6D8170E080E090E00E949A0EA3
:1006400020E030E0A9010E94260F1B012C016981E6
:1006500070E080E090E00E949A0E9B01AC01C20124
:10066000B1010E94080E0E946C0E462F212FB70187
:10067000C50147D4BFEFEB1AFB0AE4E0CE0ED11C54
:100680007FCF2A960FB6F894DEBF0FBECDBFDF91A5
:10069000CF911F910F91FF90EF90DF90CF90BF907F
:1006A000AF909F908F907F906F905F904F903F9012
:1006B0002F9008950F931F93CF93DF9300D01F9235
:1006C000CDB7DEB77DD500910D0310910E032091BB
:1006D0000F0330911003601B710B820B930B009181
:1006E000090310910A0320910B0330910C030617A4
:1006F000170728073907C0F563D560930D0370937A
:100700000E0380930F03909310038091FF0290914A
:100710000003009751F0039721F560915403709105
:1007200055038AEE92E075DE1CC0E0915403F0910F
:10073000550320E030E080914B0390914C03281743
:10074000390778F48091010390910203A09103038B
:10075000B091040381939193A193B1932F5F3F4F85
:10076000EACF8AEE92E0DFDE8091110390911203CE
:10077000019709F025D58091210390912203892BBF
:1007800009F01ED58091370390913803892B09F029
:1007900017D58AEE92E00F900F900F900F90DF9197
:1007A000CF911F910F9199C264E372E088ED93E0BD
:1007B0000E94BD0C66E072E088ED93E00E94F40CAC
:1007C0006AE272E088ED93E00E94E40C65ED71E06E
:1007D00088ED93E00E94E40C6DE971E088ED93E010
:1007E0000E94E40C6AE471E088ED93E00E94E40C5E
:1007F00067E271E088ED93E00E94E40C69E171E04A
:1008000088ED93E00E94E40C6BE071E088ED93E0EA
:100810000C94E40C1092E3021092E20268E071E0A2
:1008200088ED93E00C94BD0C40ED57E060E070E083
:1008300088E993E0EAD320E032EC41E050E068ED53
:1008400073E088E993E0F3D388E993E0DCD36CE0CC
:1008500072E08091C9039091CA030E94E00C6AE0A3
:1008600070E080E090E0DBD441E060E088E993E074
:1008700043D426E040E052EC61E070E088ED93E084
:1008800025D792DF83E090E0909300038093FF02EE
:1008900085E090E0A0E0B0E08093090390930A0324
:1008A000A0930B03B0930C038FEF90E0909306039B
:1008B00080930503109208031092070310924F03D0
:1008C0008AEE92E089D1A6CFFF920F931F93CF9328
:1008D000DF93CDB7DEB762970FB6F894DEBF0FBED9
:1008E000CDBF1092950310929603FF24FA94F092D4
:1008F0009403F09297031092900310929203F09257
:100900009103F092930310928E03F0928C03F09275
:100910008D03F0928F0310928A03F092880380E88F
:1009200080938903F0928B031092840310928503C5
:10093000F0928603F092870310928003F092810375
:10094000F0928203F092830310927D03F0927C0375
:10095000F0927E03F0927F03F0927803F092790395
:10096000F0927A03F0927B03109274031092750355
:1009700010927603F09277036EE172E0CE010D964D
:100980000E94D40D61E572E0CE0101960E94D40D63
:100990006CE572E088E693E00E94D40D61E672E0B7
:1009A0008EE693E00E94D40DBE016F5F7F4F88E614
:1009B00093E00E94E90DBE01635F7F4F8EE693E0F6
:1009C0000E94E90DCE0101960E946D0DCE010D969B
:1009D0000E946D0D68E673E0CE0101960E94FE0D47
:1009E0006EE673E0CE0107960E94FE0D22E530E030
:1009F00048E06DE270E08AEE92E05ED21092000371
:100A00001092FF021092010310920203F09203036E
:100A1000F092040310921203109211038CED95E0F2
:100A2000909314038093130301E010E010932203CA
:100A30000093210380E197E29093240380932303A2
:100A400088E893E19093260380932503F09227038F
:100A5000F0922803F0922903F0922A0310923803AF
:100A60001092370380ED97E090933A038093390317
:100A7000F0923B03F0923C03F0923D03F0923E0370
:100A800010924F0380E593E0B5DC82E593E0B2DCA1
:100A900084E593E0AFDC86E593E0ACDC88E593E0A9
:100AA000A9DC6CE572E08AE593E00E94D40D61E672
:100AB00072E080E693E00E94D40D8DE290E0909386
:100AC0004C0380934B0388E090E090934E03809317
:100AD0004D031092670310926603BE016F5F7F4F54
:100AE0008AE593E00E94E90DBE01695F7F4F80E6D1
:100AF00093E00E94E90DCE010D967CDC8D859E85EC
:100B00009093510380935003CE010D9673DC8D8535
:100B10009E859093530380935203CE010D966ADC19
:100B20008D859E859093550380935403CE010D9639
:100B300061DC8D859E859093570380935603CE018B
:100B40000D9658DC8D859E859093590380935803AC
:100B5000CE010796C2D7CE010196BFD71093E90206
:100B60000093E80282E090E09093E7028093E6022F
:100B700083E090E09093E5028093E40262960FB6E2
:100B8000F894DEBF0FBECDBFDF91CF911F910F91C3
:100B9000FF90089580E693E0A0D78AE593E09DD783
:100BA0008AEE92E006D08EE693E097D788E693E04F
:100BB00094C7CF93DF93EC0188859985009711F056
:100BC0000E9461108E8187FD04C060E0DF91CF91AB
:100BD00000C4DF91CF910895CF93DF93EC018E8114
:100BE00087FD05C061E0F5D360E08E812BD481E004
:100BF0008983DF91CF910895EF92FF920F931F9316
:100C0000CF93DF93EC017B0188859985009711F0E4
:100C10000E9461109D858A85981303C083E090E04F
:100C200002C084E090E08E9D80018F9D100D9E9DFE
:100C3000100D11241D830C83C8010E94C90F9987D0
:100C40008887009741F0A80160E070E00E94DD1104
:100C5000FB82EA8204C01D821C821B821A82DF9101
:100C6000CF911F910F91FF90EF900895FC0121E02B
:100C700095858285981320E0CB0136E0969587957F
:100C80003A95E1F7482F43704587CB0154E096959C
:100C900087955A95E1F7382F33703287CB019695B7
:100CA00087959695879583708387862F8370848731
:100CB00081E06F3F710511F008F080E0808380854E
:100CC0009185892B49F091E0431390E0921721F030
:100CD00062817381CF0190CF0895CF92DF92EF921E
:100CE000FF920F931F93CF93DF93CDB7DEB7299772
:100CF0000FB6F894DEBF0FBECDBF8C01DC01189695
:100D00008D919C911997892B09F498C065D2F801AF
:100D1000C684D784E088F1886C197D098E099F0903
:100D2000623371058105910588F3F894848195817A
:100D30009A838983A085B1857D01EFEFEE1AFE0AC3
:100D40008C918987D8019C9152960D90BC91A02DD1
:100D5000F8018489992309F42EC09C91982B9887D7
:100D60009C91809589238F838F818E8388E08D83EA
:100D700058856F8149853D812E8189819A81F7014E
:100D80005C9347FD252F3A952C93262F39F0441F6D
:100D900000C000006C93000000C0F2CF38E0419129
:100DA0006C930000019761F7F801B38BA28B498720
:100DB0003D832E8338C09C91982B98879C91809579
:100DC00089238F838F818C8388E08B8358856F8103
:100DD00049853B812C8189819A81F7015C9347FD8C
:100DE000252F00C000C02C9300C000C000C000C070
:100DF00000C06C930000262F3A9541F0441F00007C
:100E000000C000C000C000C000C0E8CF38E0419181
:100E100000C06C9300C0019709F7F801B38BA28B57
:100E200049873B832C839A8389837894D5D1D801D1
:100E30001E966D937D938D939C93519729960FB633
:100E4000F894DEBF0FBECDBFDF91CF911F910F9100
:100E5000FF90EF90DF90CF9008951F93CF93DF9393
:100E6000EC01162F8981882329F08E8187FD02C02D
:100E700060E0AFD21E838981882331F061E0812F49
:100E8000A8D260E0812FDED2812F90E0FC01E15FEB
:100E9000FC4FE491F0E0EE0FFF1FEB5AFC4F259161
:100EA00034913B8B2A8BFC01E753FD4F84918C8B53
:100EB000DF91CF911F910895EF92FF920F931F93AF
:100EC000CF93DF931F92CDB7DEB77C018B01FC017E
:100ED000118217821186108616861786108A118A4B
:100EE000B9014983C3DEB801C70186DE4981642F99
:100EF000C7010F90DF91CF911F910F91FF90EF905D
:100F0000ACCF0F931F93CF93DF93DC0112968D919B
:100F10009C9113976817790708F042C017968C9137
:100F20001797882361F0489FA0011124452F289F1F
:100F300090011124232F089F80011124012F1D9659
:100F40003C911D971A965C911A9718968D919C91D9
:100F50001997FB01351307C0EE0FFF1FE60FF71FB0
:100F6000E80FF91F0AC0EE0FFF1FEE0FFF1FE80F7B
:100F7000F91FEF01C30FD11D18821A968C911A9791
:100F8000EF01C80FD11D48831B968C911B97EF0171
:100F9000C80FD11D28831C968C91E80FF11D00838A
:100FA000DF91CF911F910F910895962F50E060E04F
:100FB00070E0592B682BCB01BA0108950F931F9352
:100FC000CF93DF93EC01662351F0FAD069837A83E3
:100FD0008B839C83DF91CF911F910F910895F0D067
:100FE00009811A812B813C81601B710B820B930B51
:100FF000693171058105910540F763E070E080E09B
:1010000090E00DD1ECCF60E0D9CFFC0113AA14AA77
:1010100015AA16AA11821282138214824115510553
:101020006105710519F0CB01BA01F9C00895FB0102
:10103000BA01A901DC01D296FC93EE93D19726E088
:10104000CF0144C31F93CF93DF93EC01162F6CE6BF
:1010500072E089A99AA9B4D44AE050E0612F89A925
:101060009AA935D563E772E089A99AA9A9D462E360
:1010700070E080E090E0DF91CF911F91D0C01F938E
:10108000CF93DF93EC01162F8D81882381F189A9FD
:101090009AA9DC01ED91FC910480F581E02D199570
:1010A000892BA9F307C02637310511F12835310501
:1010B00009F41D8289A99AA9DC01ED91FC910480B3
:1010C000F581E02D1995181619068CF489A99AA9AD
:1010D000DC01ED91FC910680F781E02D19959C01D2
:1010E000332723363105F9F6612FCE01ABDF83E6D6
:1010F000DF91CF911F9108950F931F93CF93DF93AB
:101100001F92CDB7DEB78C01662341F081E0F80174
:10111000858360E0C8014983B2DF4981F8014583D6
:101120000F90DF91CF911F910F9108951F920F9211
:101130000FB60F9211242F933F938F939F93AF93EA
:10114000BF938091D0039091D103A091D203B0912D
:10115000D3033091CF0323E0230F2D3720F40196E2
:10116000A11DB11D05C026E8230F0296A11DB11DCA
:101170002093CF038093D0039093D103A093D20305
:10118000B093D3038091D4039091D503A091D6035B
:10119000B091D7030196A11DB11D8093D403909304
:1011A000D503A093D603B093D703BF91AF919F917E
:1011B0008F913F912F910F900FBE0F901F90189518
:1011C0002FB7F8946091D0037091D1038091D2032E
:1011D0009091D3032FBF08953FB7F8948091D40323
:1011E0009091D503A091D603B091D70326B5A89BC3
:1011F00005C02F3F19F00196A11DB11D3FBF662705
:10120000782F892F9A2F620F711D811D911D42E049
:10121000660F771F881F991F4A95D1F70895CF92BF
:10122000DF92EF92FF92CF93DF936B017C01D4DFCB
:10123000EB01C114D104E104F10479F0E7D4CCDF6F
:101240006C1B7D0B683E7340A0F381E0C81AD10887
:10125000E108F108C851DC4FECCFDF91CF91FF904E
:10126000EF90DF90CF900895789484B5826084BD2C
:1012700084B5816084BD85B5826085BD85B581609A
:1012800085BDEEE6F0E0808181608083E1E8F0E0FA
:101290001082808182608083808181608083E0E829
:1012A000F0E0808181608083E1EBF0E08081846008
:1012B0008083E0EBF0E0808181608083E1E9F0E011
:1012C000808182608083808181608083E0E9F0E0BA
:1012D000808181608083E1EAF0E0808182608083A8
:1012E000808181608083E0EAF0E08081816080839A
:1012F000E1E2F1E08081826080838081816080838F
:10130000E0E2F1E0808181608083EAE7F0E08081C3
:10131000846080838081826080838081816080831B
:101320008081806880831092C100089590E0FC0164
:101330003197E231F10508F04BC0EE58FF4F1FC660
:10134000809180008F7703C0809180008F7D809393
:101350008000089580918000877FF9CF84B58F77D2
:1013600002C084B58F7D84BD08958091B0008F77D1
:1013700003C08091B0008F7D8093B000089580916C
:1013800090008F7707C0809190008F7D03C080917F
:101390009000877F8093900008958091A0008F77C0
:1013A00007C08091A0008F7D03C08091A000877F3F
:1013B0008093A0000895809120018F7707C08091CD
:1013C00020018F7D03C080912001877F80932001C1
:1013D0000895CF93DF9390E0FC01E753FD4F2491F4
:1013E000FC01E15FFC4F8491882349F190E0880F74
:1013F000991FFC01E159FC4FA591B4918B5A9C4F68
:10140000FC01C591D4919FB7611108C0F8948C91EB
:10141000209582238C93888182230AC0623051F404
:10142000F8948C91322F309583238C938881822B72
:10143000888304C0F8948C91822B8C939FBFDF919A
:10144000CF9108950F931F93CF93DF931F92CDB742
:10145000DEB7282F30E0F901ED57FD4F8491F901F7
:10146000E753FD4F1491F901E15FFC4F0491002314
:10147000C1F0882319F0698359DF6981E02FF0E01A
:10148000EE0FFF1FEB5AFC4FA591B4919FB7F89454
:101490008C91611103C01095812301C0812B8C9325
:1014A0009FBF0F90DF91CF911F910F910895FC0185
:1014B000818D228D90E0805C9F4F821B91098F73FC
:1014C00099270895FC01918D828D981731F0828DB6
:1014D000E80FF11D858D90E008958FEF9FEF08953F
:1014E000FC01918D828D981761F0828DDF01A80F2C
:1014F000B11D5D968C91928D9F5F9F73928F90E04E
:1015000008958FEF9FEF089585E29CE0892B39F0D5
:1015100080E090E0892B19F098D1811125C080E0FE
:1015200090E0892B41F080E090E0892B21F00E942F
:10153000000081111CC080E090E0892B41F080E028
:1015400090E0892B21F00E940000811113C080E0FF
:1015500090E0892BA1F080E090E0892B81F00E943F
:10156000000081110AC008950E940000D8CF0E9497
:101570000000E1CF0E940000EACF0C940000089523
:10158000FC01848DDF01A80FB11DA35ABF4F2C9120
:10159000848D90E001968F739927848FA689B789EF
:1015A0002C93A089B1898C9180648C93938D848DC8
:1015B000981306C00288F389E02D80818F7D808397
:1015C0000895CF93DF93EC01888D8823C1F0EA89D9
:1015D000FB89808185FD05C0A889B9898C9186FD2C
:1015E0000EC00FB607FCF5CF808185FFF2CFA8892A
:1015F000B9898C9185FFEDCFCE01C2DFE8CFDF91B5
:10160000CF910895CF92DF92FF920F931F93CF93C4
:10161000DF931F92CDB7DEB76C0181E0D6015896FB
:101620008C9358975B969C915B975C968C915C979A
:10163000981307C05096ED91FC915197808185FDDC
:101640002DC0F601038D10E00F5F1F4F0F731127A0
:10165000F02EF601848DF81210C00FB607FCF9CFFA
:10166000D6015096ED91FC915197808185FFF1CF85
:10167000C601698385DF6981ECCF838DE80FF11D99
:10168000E35AFF4F6083D6015B960C935B975296AB
:10169000ED91FC915397808180620CC0D6015696E3
:1016A000ED91FC91579760835096ED91FC91519785
:1016B00080818064808381E090E00F90DF91CF9102
:1016C0001F910F91FF90DF90CF900895BF92CF921E
:1016D000DF92EF92FF92CF93DF93EC016A017B01DF
:1016E000B22EE889F98982E08083411581EE58079E
:1016F0006105710599F060E079E08DE390E0A70164
:1017000096011BD42150310941095109569547953D
:1017100037952795211580E1380790F0E889F989F8
:10172000108260E874E88EE190E0A701960105D48C
:10173000215031094109510956954795379527950B
:10174000EC85FD853083EE85FF852083188EEC893E
:10175000FD89B082EA89FB89808180618083EA8982
:10176000FB89808188608083EA89FB898081806829
:101770008083EA89FB8980818F7D8083DF91CF918F
:10178000FF90EF90DF90CF90BF9008951F920F923F
:101790000FB60F9211240BB60F922F938F939F9336
:1017A000EF93FF93E091E803F091E9038081E091EA
:1017B000EE03F091EF0382FD12C090818091F1035E
:1017C0008F5F8F732091F203821751F0E091F10344
:1017D000F0E0E852FC4F958F8093F10301C08081C7
:1017E000FF91EF919F918F912F910F900BBE0F90D2
:1017F0000FBE0F901F9018951F920F920FB60F9269
:1018000011240BB60F922F933F934F935F936F93D7
:101810007F938F939F93AF93BF93EF93FF9388ED45
:1018200093E0AEDEFF91EF91BF91AF919F918F91C9
:101830007F916F915F914F913F912F910F900BBED0
:101840000F900FBE0F901F90189588ED93E02FDE3C
:1018500021E0892B09F420E0822F08951092DB0308
:101860001092DA0388EE93E0A0E0B0E08093DC030E
:101870009093DD03A093DE03B093DF0388EC92E046
:101880009093D9038093D80385EC90E09093E5037F
:101890008093E40384EC90E09093E7038093E60365
:1018A00080EC90E09093E9038093E80381EC90E072
:1018B0009093EB038093EA0382EC90E09093ED0326
:1018C0008093EC0386EC90E09093EF038093EE031B
:1018D0001092F1031092F2031092F3031092F403AA
:1018E00008950895C1DCFDDF0E941404C4E8DAE025
:1018F0000E945A032097E1F307DEFACF4AC3CF9242
:10190000DF92EF92FF920F931F93CF93DF937C01AF
:101910006A01EB0100E010E00C151D0571F0699102
:10192000D701ED91FC910190F081E02DC70119954F
:10193000892B19F00F5F1F4FEFCFC801DF91CF91B7
:101940001F910F91FF90EF90DF90CF900895611558
:10195000710581F0DB010D900020E9F7AD014150E8
:101960005109461B570BDC01ED91FC910280F3817C
:10197000E02D199480E090E00895EF92FF920F938C
:101980001F93CF93DF938C017B01C0E0D0E0F70180
:10199000EC0FFD1F6491662359F0F801A081B1811D
:1019A000ED91FC91C8011995892B11F02196EFCF8B
:1019B000CE01DF91CF911F910F91FF90EF9008958D
:1019C000C6CF69E772E0C3CF0F931F93CF93DF9326
:1019D000EC01D3DF8C01CE01F4DF800F911FDF918A
:1019E000CF911F910F9108950F931F93CF93DF9382
:1019F000EC01ADDF8C01CE01E4DF800F911FDF91A0
:101A0000CF911F910F9108958F929F92AF92BF92A5
:101A1000CF92DF92EF92FF920F931F93CF93DF93BA
:101A2000CDB7DEB7A1970FB6F894DEBF0FBECDBF1E
:101A30007C01C42EE52FCB01D22E19A221E02D1559
:101A400010F02AE0D22E8E010F5D1F4F8D2C912CAD
:101A5000A12CB12C6C2D7E2FA50194016ED28C2D62
:101A6000D29E80191124015011098A3014F4805D2E
:101A700001C0895CF80180832115310541055105BC
:101A800021F0C22EE32FCA01E5CFB801C7015FDF05
:101A9000A1960FB6F894DEBF0FBECDBFDF91CF91F8
:101AA0001F910F91FF90EF90DF90CF90BF90AF907C
:101AB0009F908F9008952115310541F4DC01ED913F
:101AC000FC910190F081E02D642F19949DCF9A0133
:101AD000462F50E060E070E0EECFFC018081918104
:101AE000F0C2CF93DF93EC0188819981009709F0D0
:101AF000E8D2198218821D821C821B821A82DF9111
:101B0000CF9108950F931F93CF93DF93EC018B0137
:101B10006F5F7F4F8881998163D3009731F09983FC
:101B200088831B830A8381E001C080E0DF91CF912D
:101B30001F910F910895CF93DF93EC0188819981D4
:101B4000892B29F08A819B818617970758F4CE014B
:101B5000D9DF882341F08C819D81892B19F4E8819C
:101B6000F981108281E0DF91CF910895EF92FF9289
:101B70000F931F93CF93DF93EC017B018A01BA018E
:101B8000DADF811103C0CE01ACDF06C01D830C83F8
:101B9000B7018881998118D4CE01DF91CF911F912F
:101BA0000F91FF90EF900895FC0111821082138233
:101BB0001282158214826115710551F0FB010190AA
:101BC0000020E9F7AF0141505109461B570BCECF1A
:101BD0000895CF93DF93EC01FB018617970751F02F
:101BE000608171816115710521F044815581BEDFED
:101BF00001C077DFCE01DF91CF910895FC01118202
:101C000010821382128215821482E3CF08955058F5
:101C1000BB27AA270ED0E0C0D1D030F0D6D020F01C
:101C200031F49F3F11F41EF4C6C00EF4E095E7FBBB
:101C3000BCC0E92FE2D080F3BA17620773078407AC
:101C4000950718F071F49EF5FAC00EF4E0950B2E8E
:101C5000BA2FA02D0B01B90190010C01CA01A001FE
:101C60001124FF27591B99F0593F50F4503E68F159
:101C70001A16F040A22F232F342F4427585FF3CF9A
:101C8000469537952795A795F0405395C9F77EF46B
:101C90001F16BA0B620B730B840BBAF09150A1F0B4
:101CA000FF0FBB1F661F771F881FC2F70EC0BA0F3A
:101CB000621F731F841F48F4879577956795B795C2
:101CC000F7959E3F08F0B3CF9395880F08F09927BA
:101CD000EE0F97958795089598D088F09F5790F0CC
:101CE000B92F9927B751A0F0D1F0660F771F881F41
:101CF000991F1AF0BA95C9F712C0B13081F09FD080
:101D0000B1E008959CC0672F782F8827B85F39F01D
:101D1000B93FCCF3869577956795B395D9F73EF49F
:101D200090958095709561957F4F8F4F9F4F089547
:101D3000E89409C097FB3EF4909580957095619565
:101D40007F4F8F4F9F4F9923A9F0F92F96E9BB271B
:101D50009395F695879577956795B795F111F8CF97
:101D6000FAF4BB0F11F460FF1BC06F5F7F4F8F4F02
:101D70009F4F16C0882311F096E911C0772321F0F8
:101D80009EE8872F762F05C0662371F096E8862F90
:101D900070E060E02AF09A95660F771F881FDAF7E7
:101DA000880F9695879597F9089597F99F6780E82A
:101DB00070E060E008959FEF80EC089500240A949D
:101DC0001616170618060906089500240A94121616
:101DD0001306140605060895092E0394000C11F449
:101DE000882352F0BB0F40F4BF2B11F460FF04C0F6
:101DF0006F5F7F4F8F4F9F4F089557FD9058440F4F
:101E0000551F59F05F3F71F04795880F97FB991F59
:101E100061F09F3F79F08795089512161306140616
:101E2000551FF2CF4695F1DF08C0161617061806A3
:101E3000991FF1CF86957105610508940895E8947E
:101E4000BB2766277727CB0197F908950BD0C4CF1E
:101E5000B5DF28F0BADF18F0952309F0A6CFABCF95
:101E60001124EECFCADFA0F3959FD1F3950F50E078
:101E7000551F629FF001729FBB27F00DB11D639F3C
:101E8000AA27F00DB11DAA1F649F6627B00DA11DE2
:101E9000661F829F2227B00DA11D621F739FB00D88
:101EA000A11D621F839FA00D611D221F749F3327F8
:101EB000A00D611D231F849F600D211D822F762F91
:101EC0006A2F11249F5750408AF0E1F088234AF08E
:101ED000EE0FFF1FBB1F661F771F881F91505040DA
:101EE000A9F79E3F510570F060CFAACF5F3FECF39A
:101EF000983EDCF3869577956795B795F795E795C6
:101F00009F5FC1F7FE2B880F911D9695879597F9D6
:101F10000895AA1BBB1B51E107C0AA1FBB1FA61730
:101F2000B70710F0A61BB70B881F991F5A95A9F782
:101F300080959095BC01CD010895A1E21A2EAA1BAF
:101F4000BB1BFD010DC0AA1FBB1FEE1FFF1FA21769
:101F5000B307E407F50720F0A21BB30BE40BF50B66
:101F6000661F771F881F991F1A9469F760957095EF
:101F7000809590959B01AC01BD01CF010895EE0FB6
:101F8000FF1F0590F491E02D19940790F691E02D34
:101F90001994CF93DF938230910510F482E090E0A2
:101FA000E0917704F091780420E030E0A0E0B0E028
:101FB000309739F14081518148175907B8F04817D7
:101FC000590771F482819381109729F013969C939D
:101FD0008E9312972CC0909378048093770427C037
:101FE0002115310531F04217530718F0A901DB0123
:101FF00001C0EF019A01BD01DF010280F381E02DF4
:10200000D7CF21153105F9F0281B390B24303105C4
:1020100080F48A819B816115710521F0FB01938316
:10202000828304C09093780480937704FE013296F3
:1020300044C0FE01E20FF31F8193919322503109B6
:10204000398328833AC02091750430917604232B7C
:1020500041F42091020230910302309376042093E0
:10206000750420910002309101022115310541F4DF
:102070002DB73EB74091040250910502241B350B49
:10208000E0917504F0917604E217F307A0F42E1B9B
:102090003F0B2817390778F0AC014E5F5F4F2417CC
:1020A000350748F04E0F5F1F509376044093750438
:1020B0008193919302C0E0E0F0E0CF01DF91CF91F6
:1020C0000895CF93DF93009709F487C0FC013297FE
:1020D00013821282C0917704D0917804209781F402
:1020E00020813181280F391F8091750490917604E9
:1020F0008217930779F5F0937604E09375046DC029
:10210000DE0120E030E0AE17BF0750F412964D918B
:102110005C9113979D014115510509F1DA01F3CF47
:10212000B383A28340815181840F951F8A179B0737
:1021300071F48D919C911197840F951F0296918354
:10214000808312968D919C9113979383828321159E
:10215000310529F4F0937804E09377043EC0D90167
:102160001396FC93EE9312974D915D91A40FB51FBA
:10217000EA17FB0779F480819181840F951F0296FD
:10218000D90111969C938E938281938113969C938F
:102190008E931297E0E0F0E08A819B81009719F01E
:1021A000FE01EC01F9CFCE01029628813981820F20
:1021B000931F20917504309176042817390769F42C
:1021C000309729F4109278041092770402C0138299
:1021D0001282D0937604C0937504DF91CF91089555
:1021E0006F927F928F929F92AF92BF92CF92DF9227
:1021F000EF92FF920F931F93CF93DF93EC01CB01EC
:10220000209779F4DF91CF911F910F91FF90EF907C
:10221000DF90CF90BF90AF909F908F907F906F9006
:10222000B8CEFE01E60FF71F9E0122503109E217DA
:10223000F30708F4A8C0D9010D911C911197061756
:102240001707B0F00530110508F49BC0A8014450F1
:1022500051094617570708F494C002501109061B8C
:10226000170B019311936D937C93CF012ADF89C0E3
:102270005B01A01AB10A4E01800E911EA091770455
:10228000B0917804612C712C60E070E0109709F433
:1022900049C0A815B905C9F5ED90FC9011976701E3
:1022A00042E0C40ED11CCA14DB0478F147018A183D
:1022B0009B08640142E0C40ED11C1296BC90129798
:1022C0001396AC91B5E0CB16D10440F0B282A38353
:1022D00091828082D9018D939C9309C00E5F1F4F1C
:1022E0000E0D1F1DF90111830083EB2DFA2F6115CF
:1022F000710531F0DB011396FC93EE93129741C008
:10230000F0937804E09377043CC06D917C91119731
:102310006616770608F43B01BD0112960D90BC913C
:10232000A02DB4CF6091750470917604681579057D
:10233000E9F468167906D0F4409100025091010248
:102340004115510541F44DB75EB76091040270919B
:102350000502461B570BE417F507A8F4F093760423
:10236000E0937504F901918380830BC012DE7C0138
:10237000009749F0A801BE0117D0CE01A2DEC70127
:1023800004C0CE0102C080E090E0DF91CF911F91A8
:102390000F91FF90EF90DF90CF90BF90AF909F9004
:1023A0008F907F906F900895FB01DC0102C0019037
:1023B0000D9241505040D8F70895DC0101C06D9353
:1023C00041505040E0F70895FB01DC0101900D926F
:1023D0000020E1F7089513E0CEE8D3E000E005C067
:1023E00022970109FE010BBFD0DDC039D10780E083
:0823F0000807B1F7F894FFCFD4
:1023F800000079048000302E342E3600564D4450AB
:10240800565F317C315F564D4450560D0A00546872
:102418006973206973207468652064657461696CE8
:102428007320666F722074686520737472697020F7
:102438007573656420696E207468652064656D6FC6
:102448000044656D6F205374726970004E6F6E653D
:10245800004E6F2044657461696C7300564D44509A
:10246800435F005F564D4450430D0A004572726F3A
:10247800723A20417474656D707420746F207365AE
:1024880074206120726561642D6F6E6C79207661AD
:10249800726961626C65206F722064617461207476
:1024A800797065206E6F7420737570706F727465C3
:1024B800640D0A0000000000020B7F0C570A700A26
:1024C800620AE10A6E616E00696E66006F766600E8
:0224D8002E00D4
:00000001FF
