:1000000009C1000036C1000034C1000032C1000047
:1000100030C100002EC100002CC100002AC1000028
:1000200028C1000026C1000024C1000022C1000038
:1000300020C100001EC100001CC100001AC1000048
:1000400018C1000016C1000014C1000012C1000058
:1000500010C100000EC100000CC100000EC4000061
:1000600008C100003AC700006EC7000002C10000CE
:1000700000C10000FEC00000FCC00000FAC000008B
:10008000F8C00000F6C00000F4C00000F2C000009C
:10009000F0C00000EEC00000ECC00000EAC00000AC
:1000A000E8C00000E6C00000E4C00000E2C00000BC
:1000B000E0C00000DEC00000DCC00000DAC00000CC
:1000C000D8C00000D6C00000D4C00000D2C00000DC
:1000D000D0C00000CEC00000CCC00000CAC00000EC
:1000E000C8C000005505580547054B0551058F054B
:1000F0005C05600566056A056E05740578057C0576
:100100008F05820586058A0500000A0B02090C0D81
:100110000E080703040100000000000000000000BA
:1001200000000000000000000000000000000000CF
:10013000000000001211100000000000000000008C
:1001400000000000000000000000000000000102AC
:1001500010202008081020401020408002010201D9
:100160000804020101020408102040808040201091
:1001700008040201800402018040201008040201EA
:100180000804020101020408102040800102040852
:10019000102040800505050507050808080802022B
:1001A00002020A0A08080404040401010101010111
:1001B00001010303030303030303040707070C0CF4
:1001C0000C0C0C0C0C0C02020202060606060606BB
:1001D00006060B0B0B0B0B0B0B0B00002200250074
:1001E00028002B002E003100340002010000050120
:1001F00008010B0100002100240027002A002D0027
:100200003000330001010000040107010A01CC01A4
:10021000D507AE0211241FBECFEFD1E2DEBFCDBFA6
:1002200000E00CBF12E0A0E0B2E0E0E7F4E100E0A3
:100230000BBF02C007900D92A038B107D9F723E099
:10024000A0E8B2E001C01D92AE3CB207E1F712E0B7
:10025000C2E1D2E000E005C022970109FE010BBF18
:10026000C4D7CE30D10780E00807B1F7E2D60C94AE
:10027000270AC6CE0F931F93CF93DF9300D000D0F1
:10028000CDB7DEB78B01FA0120813181428129830C
:100290003A834B836115710569F487E090E0D3D60A
:1002A000FC0129813A814B81248335834683138263
:1002B00012820BC0FB0162817381AE014F5F5F4F01
:1002C000D9DFF80193838283C80126960FB6F8948C
:1002D000DEBF0FBECDBFDF91CF911F910F9108956B
:1002E000CF92DF92EF92FF920F931F93CF93DF9302
:1002F00000D0CDB7DEB78C016B01FC0111821082FA
:10030000138212821582148217821682E12CF12C3C
:10031000EC14FD0481F087E090E095D6AE014F5FCC
:100320005F4FBC01C801A6DFF80193838283FFEF12
:10033000EF1AFF0AEDCF0F900F900F90DF91CF9142
:100340001F910F91FF90EF90DF90CF90089540EDB7
:1003500057E060E070E08DEE92E0FED120E032ECFC
:1003600041E050E06DE273E08DEE92E007D28DEE59
:1003700092E0F0D166E072E080911E0390911F033D
:10038000A1D66AE070E080E090E0F0D241E060E069
:100390008DEE92E058C20895CF93DF93CDB7DEB7CC
:1003A00028970FB6F894DEBF0FBECDBF22E530E030
:1003B00045E06CE370E080E892E082D11092960212
:1003C0001092950210929702109298022FEF2093AC
:1003D000990210929F0210929E028CED95E09093EC
:1003E000A1028093A00281E090E09093A702809305
:1003F000A60280E197E29093A9028093A80288E880
:1004000093E19093AB028093AA022093AC022093D5
:10041000AD022093AE021092B4021092B30280EDAE
:1004200097E09093B6028093B5022093B702209391
:10043000B8022093B9021092CA021092CC02109214
:10044000CB021092CE021092CD021092D0021092E6
:10045000CF021092D2021092D1021092D4021092C6
:10046000D3021092D6021092D5021092D8021092A6
:10047000D7021092DA021092D9021092DC02109286
:10048000DB021092DE021092DD021092E002109266
:10049000DF021092E2021092E1021092E402109246
:1004A000E3021092E6021092E5021092E802109226
:1004B000E7021092EA021092E9028CE390E0909336
:1004C000C7028093C60285E090E09093C9028093B2
:1004D000C8021092EC021092EB026CE370E0CE01C5
:1004E0000196FEDE88E0FE013196ABECB2E00190B1
:1004F0000D928A95E1F76CE370E0CE010196F0DE93
:1005000088E0FE013196A3EDB2E001900D928A954C
:10051000E1F76CE370E0CE010196E2DE88E0FE01D7
:100520003196ABEDB2E001900D928A95E1F76CE364
:1005300070E0CE010196D4DE88E0FE013196A3EE94
:10054000B2E001900D928A95E1F728960FB6F894E3
:10055000DEBF0FBECDBFDF91CF91089580E892E05E
:1005600000C0CF93DF93EC0188859985009709F04F
:10057000D8D68E8187FD04C060E0DF91CF91D0C2D4
:10058000DF91CF910895EF92FF920F931F93CF9336
:10059000DF93EC017B0188859985009709F0C1D62E
:1005A0009D858A85981303C083E090E002C084E0B3
:1005B00090E08E9D80018F9D100D9E9D100D112449
:1005C0001D830C83C80115D699878887009739F059
:1005D000A80160E070E034D7FB82EA8204C01D828B
:1005E0001C821B821A82DF91CF911F910F91FF9085
:1005F000EF900895FC0121E095858285981320E015
:10060000CB0136E0969587953A95E1F7482F4370F0
:100610004587CB0154E0969587955A95E1F7382F99
:1006200033703287CB019695879596958795837021
:100630008387862F8370848781E06F3F710511F077
:1006400008F080E0808380859185892B49F091E0D6
:10065000431390E0921721F062817381CF0193CF11
:1006600008951F93CF93DF93EC01162F8981882380
:1006700029F08E8187FD02C060E052D21E838981FD
:10068000882331F061E0812F4BD260E0812F81D24D
:10069000812F90E0FC01EC56FE4FE491F0E0EE0F6C
:1006A000FF1FE652FE4F259134913B8B2A8BFC01B4
:1006B000E25BFE4F84918C8BDF91CF911F91089567
:1006C000EF92FF920F931F93CF93DF931F92CDB7BB
:1006D000DEB77C018B01FC01118217821186108626
:1006E00016861786108A118AB901498383DFB801FB
:1006F000C70149DF4981642FC7010F90DF91CF9176
:100700001F910F91FF90EF90ACCF0F931F93CF935A
:10071000DF93EC01662351F0FAD069837A838B83EF
:100720009C83DF91CF911F910F910895F0D00981A3
:100730001A812B813C81601B710B820B930B6931F9
:1007400071058105910540F763E070E080E090E07D
:100750000DD1ECCF60E0D9CFFC0113AA14AA15AAE1
:1007600016AA118212821382148241155105610565
:10077000710519F0CB01BA01F9C00895FB01BA0166
:10078000A901DC01D296FC93EE93D19726E0CF012C
:1007900044C31F93CF93DF93EC01162F68E172E0FF
:1007A00089A99AA98FD44AE050E0612F89A99AA912
:1007B000EDD46FE172E089A99AA984D462E370E074
:1007C00080E090E0DF91CF911F91D0C01F93CF9335
:1007D000DF93EC01162F8D81882381F189A99AA9D5
:1007E000DC01ED91FC910480F581E02D1995892BB8
:1007F000A9F307C02637310511F12835310509F471
:100800001D8289A99AA9DC01ED91FC910480F581F2
:10081000E02D1995181619068CF489A99AA9DC01FE
:10082000ED91FC910680F781E02D19959C0133270D
:1008300023363105F9F6612FCE01ABDF83E6DF9178
:10084000CF911F9108950F931F93CF93DF931F9222
:10085000CDB7DEB78C01662341F081E0F8018583D6
:1008600060E0C8014983B2DF4981F80145830F90F8
:10087000DF91CF911F910F9108951F920F920FB6A4
:100880000F9211242F933F938F939F93AF93BF9316
:100890008091250390912603A0912703B09128030E
:1008A0003091240323E0230F2D3720F40196A11D5E
:1008B000B11D05C026E8230F0296A11DB11D20938E
:1008C00024038093250390932603A0932703B093DA
:1008D00028038091290390912A03A0912B03B091C2
:1008E0002C030196A11DB11D8093290390932A0327
:1008F000A0932B03B0932C03BF91AF919F918F9145
:100900003F912F910F900FBE0F901F9018952FB70A
:10091000F8946091250370912603809127039091AC
:1009200028032FBF08953FB7F89480912903909131
:100930002A03A0912B03B0912C0326B5A89B05C0D8
:100940002F3F19F00196A11DB11D3FBF6627782FDB
:10095000892F9A2F620F711D811D911D42E0660F34
:10096000771F881F991F4A95D1F70895CF92DF927C
:10097000EF92FF92CF93DF936B017C01D4DFEB0109
:10098000C114D104E104F10479F006D4CCDF6C1B6E
:100990007D0B683E7340A0F381E0C81AD108E108DE
:1009A000F108C851DC4FECCFDF91CF91FF90EF9071
:1009B000DF90CF900895789484B5826084BD84B52B
:1009C000816084BD85B5826085BD85B5816085BD4A
:1009D000EEE6F0E0808181608083E1E8F0E0108263
:1009E000808182608083808181608083E0E8F0E0A4
:1009F000808181608083E1EBF0E08081846080838E
:100A0000E0EBF0E0808181608083E1E9F0E08081CB
:100A100082608083808181608083E0E9F0E0808172
:100A200081608083E1EAF0E0808182608083808160
:100A300081608083E0EAF0E0808181608083E1E290
:100A4000F1E0808182608083808181608083E0E248
:100A5000F1E0808181608083EAE7F0E0808184605A
:100A600080838081826080838081816080838081B7
:100A7000806880831092C100089590E0FC01319756
:100A8000E231F10508F04BC0EE58FF4FA8C380914A
:100A900080008F7703C0809180008F7D80938000DD
:100AA000089580918000877FF9CF84B58F7702C049
:100AB00084B58F7D84BD08958091B0008F7703C089
:100AC0008091B0008F7D8093B00008958091900058
:100AD0008F7707C0809190008F7D03C08091900038
:100AE000877F8093900008958091A0008F7707C042
:100AF0008091A0008F7D03C08091A000877F8093AC
:100B0000A0000895809120018F7707C08091200177
:100B10008F7D03C080912001877F809320010895FD
:100B2000CF93DF9390E0FC01E25BFE4F2491FC0148
:100B3000EC56FE4F8491882349F190E0880F991F6D
:100B4000FC01EC50FE4FA591B49186529E4FFC01E2
:100B5000C591D4919FB7611108C0F8948C912095EC
:100B600082238C93888182230AC0623051F4F894E6
:100B70008C91322F309583238C938881822B8883AC
:100B800004C0F8948C91822B8C939FBFDF91CF91FE
:100B900008950F931F93CF93DF931F92CDB7DEB7C6
:100BA000282F30E0F901E85FFE4F8491F901E25B04
:100BB000FE4F1491F901EC56FE4F04910023C1F051
:100BC000882319F0698359DF6981E02FF0E0EE0F87
:100BD000FF1FE652FE4FA591B4919FB7F8948C91F8
:100BE000611103C01095812301C0812B8C939FBF9D
:100BF0000F90DF91CF911F910F910895FC01818D8E
:100C0000228D90E0805C9F4F821B91098F73992702
:100C10000895FC01918D828D981731F0828DE80F37
:100C2000F11D858D90E008958FEF9FEF0895FC01F1
:100C3000918D828D981761F0828DDF01A80FB11D13
:100C40005D968C91928D9F5F9F73928F90E0089537
:100C50008FEF9FEF08958CEC97E0892B39F080E0BF
:100C600090E0892B19F098D1811125C080E090E0A7
:100C7000892B41F080E090E0892B21F00E94000058
:100C800081111CC080E090E0892B41F080E090E071
:100C9000892B21F00E940000811113C080E090E0B8
:100CA000892BA1F080E090E0892B81F00E94000068
:100CB00081110AC008950E940000D8CF0E94000050
:100CC000E1CF0E940000EACF0C9400000895FC01DF
:100CD000848DDF01A80FB11DA35ABF4F2C91848DC5
:100CE00090E001968F739927848FA689B7892C93FA
:100CF000A089B1898C9180648C93938D848D981395
:100D000006C00288F389E02D80818F7D808308955D
:100D1000CF93DF93EC01888D8823C1F0EA89FB89AA
:100D2000808185FD05C0A889B9898C9186FD0EC09A
:100D30000FB607FCF5CF808185FFF2CFA889B9896E
:100D40008C9185FFEDCFCE01C2DFE8CFDF91CF914F
:100D50000895CF92DF92FF920F931F93CF93DF936B
:100D60001F92CDB7DEB76C0181E0D60158968C9307
:100D700058975B969C915B975C968C915C979813C7
:100D800007C05096ED91FC915197808185FD2DC053
:100D9000F601038D10E00F5F1F4F0F731127F02E28
:100DA000F601848DF81210C00FB607FCF9CFD601FA
:100DB0005096ED91FC915197808185FFF1CFC6014E
:100DC000698385DF6981ECCF838DE80FF11DE35ADC
:100DD000FF4F6083D6015B960C935B975296ED9123
:100DE000FC915397808180620CC0D6015696ED919C
:100DF000FC91579760835096ED91FC9151978081BB
:100E00008064808381E090E00F90DF91CF911F910B
:100E10000F91FF90DF90CF900895BF92CF92DF9215
:100E2000EF92FF92CF93DF93EC016A017B01B22E28
:100E3000E889F98982E08083411581EE58076105D0
:100E4000710599F060E079E08DE390E0A7019601EB
:100E5000A4D121503109410951095695479537953B
:100E60002795211580E1380790F0E889F9891082EB
:100E700060E874E88EE190E0A70196018ED12150E0
:100E80003109410951095695479537952795EC85C4
:100E9000FD853083EE85FF852083188EEC89FD89E2
:100EA000B082EA89FB89808180618083EA89FB893D
:100EB000808188608083EA89FB8980818068808363
:100EC000EA89FB8980818F7D8083DF91CF91FF90BC
:100ED000EF90DF90CF90BF9008951F920F920FB6C2
:100EE0000F9211240BB60F922F938F939F93EF9332
:100EF000FF93E0913D03F0913E038081E091430335
:100F0000F091440382FD12C09081809146038F5F6F
:100F10008F7320914703821751F0E0914603F0E070
:100F2000E35DFC4F958F8093460301C08081FF9164
:100F3000EF919F918F912F910F900BBE0F900FBE4D
:100F40000F901F9018951F920F920FB60F921124B9
:100F50000BB60F922F933F934F935F936F937F93B3
:100F60008F939F93AF93BF93EF93FF938DE293E0A3
:100F7000AEDEFF91EF91BF91AF919F918F917F91E5
:100F80006F915F914F913F912F910F900BBE0F90FA
:100F90000FBE0F901F9018958DE293E02FDE21E099
:100FA000892B09F420E0822F0895109230031092CB
:100FB0002F0388EE93E0A0E0B0E08093310390939C
:100FC0003203A0933303B093340384E792E0909309
:100FD0002E0380932D0385EC90E090933A03809349
:100FE000390384EC90E090933C0380933B0380ECC6
:100FF00090E090933E0380933D0381EC90E09093CA
:10100000400380933F0382EC90E0909342038093EF
:10101000410386EC90E09093440380934303109245
:101020004603109247031092480310924903089513
:101030000895C1DCFDDF8BD9CBE2D6E0ACD9209797
:10104000E9F309DEFBCFD5C0CF92DF92EF92FF929A
:101050000F931F93CF93DF937C016A01EB0100E0B4
:1010600010E00C151D0571F06991D701ED91FC910F
:101070000190F081E02DC7011995892B19F00F5FC0
:101080001F4FEFCFC801DF91CF911F910F91FF90BC
:10109000EF90DF90CF9008956115710581F0DB012D
:1010A0000D900020E9F7AD0141505109461B570B47
:1010B000DC01ED91FC910280F381E02D199480E038
:1010C00090E00895E9CF8F929F92AF92BF92CF9216
:1010D000DF92EF92FF920F931F93CF93DF93CDB7E1
:1010E000DEB7A1970FB6F894DEBF0FBECDBF7C016F
:1010F000C42EE52FCB01D22E19A221E02D1510F020
:101100002AE0D22E8E010F5D1F4F8D2C912CA12C29
:10111000B12C6C2D7E2FA50194013FD08C2DD29E39
:1011200080191124015011098A3014F4805D01C026
:10113000895CF8018083211531054105510521F0B5
:10114000C22EE32FCA01E5CFB801C701A5DFA196E2
:101150000FB6F894DEBF0FBECDBFDF91CF911F91C8
:101160000F91FF90EF90DF90CF90BF90AF909F9046
:101170008F9008952115310541F4DC01ED91FC912A
:101180000190F081E02D642F19949DCF9A01462F94
:1011900050E060E070E0EECF0895A1E21A2EAA1BA5
:1011A000BB1BFD010DC0AA1FBB1FEE1FFF1FA21717
:1011B000B307E407F50720F0A21BB30BE40BF50B14
:1011C000661F771F881F991F1A9469F7609570959D
:1011D000809590959B01AC01BD01CF010895EE0F64
:1011E000FF1F0590F491E02D19940790F691E02DE2
:1011F0001994CF93DF938230910510F482E090E050
:10120000E091CC03F091CD0320E030E0A0E0B0E02D
:10121000309739F14081518148175907B8F0481784
:10122000590771F482819381109729F013969C934A
:101230008E9312972CC09093CD038093CC0327C03C
:101240002115310531F04217530718F0A901DB01D0
:1012500001C0EF019A01BD01DF010280F381E02DA1
:10126000D7CF21153105F9F0281B390B2430310572
:1012700080F48A819B816115710521F0FB019383C4
:10128000828304C09093CD038093CC03FE013296F9
:1012900044C0FE01E20FF31F819391932250310964
:1012A000398328833AC02091CA033091CB03232B82
:1012B00041F420910202309103023093CB0320933A
:1012C000CA0320910002309101022115310541F439
:1012D0002DB73EB74091040250910502241B350BF7
:1012E000E091CA03F091CB03E217F307A0F42E1BA1
:1012F0003F0B2817390778F0AC014E5F5F4F24177A
:10130000350748F04E0F5F1F5093CB034093CA033D
:101310008193919302C0E0E0F0E0CF01DF91CF91A3
:101320000895CF93DF93009709F487C0FC013297AB
:1013300013821282C091CC03D091CD03209781F407
:1013400020813181280F391F8091CA039091CB03EE
:101350008217930779F5F093CB03E093CA036DC02E
:10136000DE0120E030E0AE17BF0750F412964D9139
:101370005C9113979D014115510509F1DA01F3CFF5
:10138000B383A28340815181840F951F8A179B07E5
:1013900071F48D919C911197840F951F0296918302
:1013A000808312968D919C9113979383828321154C
:1013B000310529F4F093CD03E093CC033EC0D9016D
:1013C0001396FC93EE9312974D915D91A40FB51F68
:1013D000EA17FB0779F480819181840F951F0296AB
:1013E000D90111969C938E938281938113969C933D
:1013F0008E931297E0E0F0E08A819B81009719F0CC
:10140000FE01EC01F9CFCE01029628813981820FCD
:10141000931F2091CA033091CB032817390769F431
:10142000309729F41092CD031092CC0302C013829E
:101430001282D093CB03C093CA03DF91CF9108955A
:10144000DC0101C06D9341505040E0F7089512E077
:10145000C2E1D2E000E005C022970109FE010BBF06
:10146000C4DEC431D10780E00807B1F7F894FFCF9C
:101470000000CE038000564D4450565F317C315FF2
:10148000564D4450560D0A00564D4450435F005F80
:10149000564D4450430D0A004572726F723A204116
:1014A0007474656D707420746F207365742061208E
:1014B000726561642D6F6E6C79207661726961620C
:1014C0006C65206F7220646174612074797065208E
:1014D0006E6F7420737570706F727465640D0A009E
:1014E00000000000A9062408FE0517060906880664
:00000001FF
